:100000000C943A010C9457010C9457010C9457012D
:100010000C9457010C9457010C9457010C94570100
:100020000C9457010C9457010C9457010C945701F0
:100030000C9457010C9457010C9457010C945701E0
:100040000C9457010C9457010C9457010C945701D0
:100050000C9457010C9457010C9457010C945701C0
:100060000C9457010C94570111AE00A8011F2001F8
:10007000004000D30100A100C800DA010281017F25
:10008000A400A600D50180D901C2DB01208D011496
:100090002E00AF0000000000008181188181000760
:1000A000000700147F147F14242A7F2A12231308C8
:1000B000646236495522500005030000001C2241AD
:1000C000000041221C0014083E081408083E0808DD
:1000D0000050300000080808080800606000002098
:1000E000100804023E5149453E00427F40004261F3
:1000F0005149462141454B311814127F102745457F
:1001000045393C4A49493001710905033649494995
:1001100036064949291E00363600000056360000D2
:10012000081422410014141414140041221408026B
:1001300001510906324979413E7E1111117E7F49F4
:100140004949363E414141227F4141221C7F494974
:1001500049417F090909013E4149497A7F08080858
:100160007F00417F41002040413F017F0814224130
:100170007F404040407F020C027F7F0408107F3E9A
:100180004141413E7F090909063E4151215E7F09F7
:10019000192946464949493101017F01013F404043
:1001A000403F1F2040201F3F4038403F6314081449
:1001B0006307087008076151494543007F414100CA
:1001C00002040810200041417F00040201020440A3
:1001D00040404040000102040020545454787F48BD
:1001E0004444383844444420384444487F385454C4
:1001F0005418087E0901020C5252523E7F08040432
:100200007800447D40002040443D007F1028440099
:1002100000417F40007C041804787C08040478388E
:10022000444444387C14141408081414147C7C08C6
:100230000404084854545420043F4440203C4040A7
:10024000207C1C2040201C3C4030403C442810288E
:10025000440C5050503C4464544C44000836410017
:1002600000007F0000004136080010080810080058
:100270000000000011241FBECFEFD8E0DEBFCDBFCD
:1002800011E0A0E0B1E0E8E8F7E002C005900D92CF
:10029000A232B107D9F723E0A2E2B1E001C01D927A
:1002A000A432B207E1F70E9459010C94C2030C94E6
:1002B00000008CE30E94B5010E94350224E044E076
:1002C0006FE780E00E94EF0261E087E00E94400259
:1002D00080E091E00E94A70222E142E16FE780E026
:1002E0000E94EF0263E088E20E94400285E191E013
:1002F0000E94A70265E085E30E9440028DE191E043
:100300000E94A7028CE30E9412022FEF83ED90E37C
:10031000215080409040E1F700C000008CE30E9433
:1003200005022FEF83ED90E3215080409040E1F7EC
:1003300000C000008CE30E94F801E7CFCF93C82FE4
:100340000E947703811103C08C2F0E949503CF91E7
:100350000895CF93C82F80E80E94AA03811103C09B
:100360008C2F0E94AA03CF910895DF92EF92FF9203
:100370000F931F93CF93DF93C82FE8E6F0E014911B
:100380000E946B038C2F0E949E01811129C0C9E637
:10039000D0E01EC08E010F5F1F4FFE0184910E94AE
:1003A000A90181111DC02296F80104910CC07E01A3
:1003B000FFEFEF1AFF0AFE0184910E94A901012FAD
:1003C00081110EC0E7011FEF100F0111F0CF1D2D9D
:1003D000DD24DA94D10E1111DDCF0E94BE0380E03E
:1003E000DF91CF911F910F91FF90EF90DF900895D3
:1003F0000E949E01811108C086EA0E94A901811114
:1004000003C00E94BE0380E008950E949E018111F6
:1004100008C087EA0E94A901811103C00E94BE039F
:1004200080E00895CF93DF930E949E0181111AC04E
:1004300080E40E94AA03811115C080E090E00BC007
:10044000EC012196FC01EE5DFE4F80810E94AA0323
:10045000811108C0CE01811522E0920788F30E9425
:10046000BE0380E0DF91CF91089580E092E0E2E268
:10047000F1E0DF019C011D9221503040E1F7089529
:1004800090E020E8629F800D911D1124909323033A
:1004900080932203089580912203909123039C016D
:1004A000220F232F221F330B3195922F97959927D7
:1004B0009795891B8A5F7AF4243078F4223078F497
:1004C0002F5F80E8289F900111243093230320930D
:1004D000220380E0089580E0089581E0089580E09F
:1004E0000895CF93C82F0E944B02813071F140E0F4
:1004F00020C02091220330912303C90101969093DB
:100500002303809322038C2F90E0809751E0540FB7
:10051000FC01EE0FFF1FEE0FFF1FE80FF91FE40FA6
:10052000F11DEC56FF4FE491D901AE5DBE4FEC9347
:10053000452F4530F0F280912203909123030196DC
:10054000909323038093220380E0CF9108950F932B
:100550001F93CF93DF938C01C0E0D0E003C02196BE
:100560000E947102F801EC0FFD1F80818111F7CF0D
:10057000DF91CF911F910F910895882364F161322B
:1005800060F5E62FE695E695E695F0E09F01220FEF
:10059000331F220F331F220F331F70E0621B730BB8
:1005A00021E030E002C0220F331F6A95E2F7F69592
:1005B000FE2FEE27F795E795E80FF11DCF01019685
:1005C0009093230380932203EE5DFE4F8081282BBE
:1005D000208380E0089581E0089581E008958F925E
:1005E0009F92AF92BF92CF92DF92EF92FF920F93C2
:1005F0001F93CF93DF93D82F962EC42FA22EE62ED3
:10060000F12CE81AF108C22ED12CC41AD108FF200F
:1006100034F4F194E194F10888248A9402C0882487
:100620008394DD2034F4D194C194D108BB24BA94CE
:1006300002C0BB24B394CE14DF04FCF48601000F87
:10064000111F0E191F096C2F8D2F0E94BD0212C0A1
:10065000D80D112334F0CB0DC701880F991F081B4B
:10066000190BC601880F991F080F191F6C2F8D2FAA
:100670000E94BD02D911ECCF20C0C701880F991F7D
:100680008601081B190B6C2F8D2F0E94BD0213C011
:10069000CB0D1016110634F0D80DC601880F991F26
:1006A000080F191FC701880F991F081B190B6C2F02
:1006B0008D2F0E94BD02CA11EBCF80E0DF91CF9158
:1006C0001F910F91FF90EF90DF90CF90BF90AF9070
:1006D0009F908F90089582E08093B800E9EBF0E05E
:1006E0008081908182708160892B80830895E9EBFD
:1006F000F0E080818775808384EA8093BC008091DC
:10070000BC008823E4F78091B900887F883049F0E5
:100710008091B900887F803131F08091B900887F65
:10072000089580E0089580E00895880F8093BB00CD
:1007300084E88093BC008091BC008823E4F780911A
:10074000B900887F883121F08091B900887F0895B1
:1007500080E008958093BB0084E88093BC00809182
:10076000BC008823E4F78091B900887F883221F0AB
:100770008091B900887F089580E0089584E980938E
:08078000BC000895F894FFCFBE
:100788002A204D435520534F4C44455220504C414C
:100798005445202A004C4545204A494E0032303203
:0207A80034001B
:00000001FF
