S01800006D63755F736F6C6465725F706C6174652E737265636A
S11300000C943A010C94DF010C94D5010C94570123
S11300100C9457010C9457010C9457010C945701FC
S11300200C9457010C9457010C9457010C945701EC
S11300300C9457010C9457010C9457010C945701DC
S11300400C9457010C9457010C9457010C945701CC
S11300500C9457010C9457010C9457010C945701BC
S11300600C9457010C94570111AE00A8011F2001F4
S1130070004000D30100A100C800DA010281017F21
S1130080A400A600D50180D901C2DB01208D011492
S11300902E00AF000000000000818118818100075C
S11300A0000700147F147F14242A7F2A12231308C4
S11300B0646236495522500005030000001C2241A9
S11300C0000041221C0014083E081408083E0808D9
S11300D00050300000080808080800606000002094
S11300E0100804023E5149453E00427F40004261EF
S11300F05149462141454B311814127F102745457B
S113010045393C4A49493001710905033649494991
S113011036064949291E00363600000056360000CE
S11301200814224100141414141400412214080267
S113013001510906324979413E7E1111117E7F49F0
S11301404949363E414141227F4141221C7F494970
S113015049417F090909013E4149497A7F08080854
S11301607F00417F41002040413F017F081422412C
S11301707F404040407F020C027F7F0408107F3E96
S11301804141413E7F090909063E4151215E7F09F3
S1130190192946464949493101017F01013F40403F
S11301A0403F1F2040201F3F4038403F6314081445
S11301B06307087008076151494543007F414100C6
S11301C002040810200041417F000402010204409F
S11301D040404040000102040020545454787F48B9
S11301E04444383844444420384444487F385454C0
S11301F05418087E0901020C5252523E7F0804042E
S11302007800447D40002040443D007F1028440095
S113021000417F40007C041804787C08040478388A
S1130220444444387C14141408081414147C7C08C2
S11302300404084854545420043F4440203C4040A3
S1130240207C1C2040201C3C4030403C442810288A
S1130250440C5050503C4464544C44000836410013
S113026000007F0000004136080010080810080054
S11302700000000011241FBECFEFD8E0DEBFCDBFC9
S113028011E0A0E0B1E0EAE3FAE002C005900D92CB
S1130290AC32B107D9F723E0ACE2B1E001C01D9262
S11302A0AE32B207E1F70E9459010C941B050C947D
S11302B000008CE30E9402020E947D0224E044E0DC
S11302C06FE780E00E94170361E087E00E948802E4
S11302D080E091E00E94E10222E142E16FE780E0E8
S11302E00E94170363E088E20E94880285E191E09E
S11302F00E94E10265E085E30E9488028DE191E0BD
S11303000E94E1028CE30E9461022FEF83ED90E3EF
S1130310215080409040E1F700C000008CE30E942F
S113032054022FEF83ED90E3215080409040E1F799
S113033000C000008CE30E94470261E080E00E945C
S11303403A0461E085E00E946404789480E197E2D5
S1130350909389008093880061E082E00E94B00459
S11303600E947D0263E08AE00E94880282E291E0BA
S11303700E94E10263E080E50E9488020E94D404A6
S11303806FED70E080E090E00E94D2030E94E102F1
S11303908CE30E9461022FEF83ED90E321508040B3
S11303A09040E1F700C00000DBCF1F920F920FB620
S11303B00F9211240F900FBE0F901F9018951F924B
S11303C00F920FB60F9211240F900FBE0F901F9033
S11303D01895CF93C82F0E948903811104C08C2FD4
S11303E0CF910C94A503CF910895CF93C82F80E8A3
S11303F00E94BA03811104C08C2FCF910C94BA03CC
S1130400CF910895CF92DF92EF92FF920F931F93B3
S1130410CF93182FE8E6F0E0C4910E947D03812F6A
S11304200E94E901811129C089E6E82E80E0F82EB6
S1130430CC2301F187010F5F1F4FF70184910E94C4
S1130440F50181111AC0F801049197012E5F3F4F05
S113045069017601002361F0F60184910E94F5019F
S1130460015096012F5F3F4F6901882391F305C026
S1130470C150DECF0E94CE0301C0C82F8C2FCF9174
S11304801F910F91FF90EF90DF90CF9008950E94FD
S1130490E901811108C086EA0E94F501811103C0B7
S11304A00E94CE0380E008950E94E901811108C0F2
S11304B087EA0E94F501811103C00E94CE0380E007
S11304C00895CF93DF930E94E901811113C080E462
S11304D00E94BA0381110EC0CCE2D1E089910E943E
S11304E0BA03811107C083E0CC32D807B9F70E9460
S11304F0CE0380E0DF91CF91089580E092E0ECE2BA
S1130500F1E0DF019C011D9221503040E1F7089594
S113051090E020E8629F800D911D112490932D039B
S113052080932C03089520912C0330912D03C9014D
S1130530880F892F881F990B91952A5F482F47951B
S113054044274795241B27FF10C0843060F4823071
S113055060F48F5F20E8829FC001112490932D03E3
S113056080932C0302C081E0089580E00895CF9326
S1130570C82F0E949302813011F120912C033091F5
S11305802D03D901A45DBE4F45E0C49FC0011124D1
S113059040E050E0805A9109FC01E40FF51FEC564D
S11305A0FF4FE491ED934F5F5F4F45305105A1F745
S11305B02A5F3F4F30932D0320932C0380E0CF918B
S11305C00895CF93DF93EC018991882319F00E9459
S11305D0B702FACFDF91CF91089587FD26C061322B
S11305E020F5262F26952695269530E0F901F695D7
S11305F0FE2FEE27F795E795E80FF11DCF01019641
S113060090932D0380932C03E45DFE4F88E0289F94
S11306106019112481E090E001C0880F6A95EAF71F
S11306209081892B808380E0089581E008958F92E2
S11306309F92AF92BF92CF92DF92EF92FF920F936D
S11306401F93CF93DF93082FA62E142FB22E262F9D
S113065030E0281B31098B2D90E0841B910937FF72
S113066006C031952195310999249A9402C09924A0
S1130670939497FF06C091958195910988248A9453
S113068002C0882483947C01EE0CFF1C6901CC0C0D
S1130690DD1C8217930794F4E701C21BD30B612F6F
S11306A0802F0E94ED020A15D1F0090DD7FD03C079
S11306B0180DCC19DD09CE0DDF1DF1CFEC01CC19DD
S11306C0DD09612F802F0E94ED021B1541F0180DEA
S11306D01C161D06A4F3090DCE0DDF1DF0CF80E01E
S11306E0DF91CF911F910F91FF90EF90DF90CF900A
S11306F0BF90AF909F908F90089582E08093B80050
S1130700E9EBF0E08081908182708160892B8083A5
S113071008958091B90087758093B90084EA809325
S1130720BC008091BC0087FFFCCF8091B900887F1A
S1130730883049F08091B900887F803121F0809120
S1130740B900887F089580E00895880F8093BB00E6
S113075084E88093BC008091BC0087FFFCCF80912B
S1130760B900887F883121F08091B900887F08958D
S113077080E008958093BB0084E88093BC0080915E
S1130780BC0087FFFCCF8091B900887F883221F0BC
S11307908091B900887F089580E0089584E980936A
S11307A0BC0008954F925F926F927F928F929F92B6
S11307B0AF92BF92CF92DF92EF92FF920F931F936B
S11307C0CF93DF93162F072F982E892EC1E0C12CCB
S11307D0D12C7601C394612F702F892D982DA701F8
S11307E096010E94DF042A3031054105510550F07D
S11307F0CF5FAAE0B0E0A70196010E9401056B015A
S11308007C01E9CFA12CB12CD0E08AE0482E512CF8
S1130810612C712CAC16BD06CCF4612F702F892D80
S1130820982DA70196010E94DF04205DF501219314
S11308305F01162F072F982E892EC701B601A30139
S113084092010E94DF0469017A01E4CF188280E0FA
S113085090E0DF91CF911F910F91FF90EF90DF9087
S1130860CF90BF90AF909F908F907F906F905F904C
S11308704F900895813081F08230D1F0811123C0EE
S113088024B181E090E001C0880F6A95EAF7822BD9
S113089084B985B185B9089527B181E090E001C09C
S11308A0880F6A95EAF7822B87B988B188B90895C9
S11308B02AB181E090E001C0880F6A95EAF7822BA3
S11308C08AB98BB18BB908958530A9F12CF48330A2
S11308D049F0843091F008958730B1F084F1883084
S11308E0D9F0089584B5611102C0816401C08364A4
S11308F084BD8CE085BD16BC089584B5611102C029
S11309008161F6CF8361F4CF8091B000611102C0A0
S1130910816809C0836807C08091B000611102C07A
S1130920816201C083628093B00086E08093B1004D
S11309301092B200089580918000836803C0809172
S11309408000836280938000611102C084E001C052
S11309508CE08093810010928500109284000895A9
S1130960613041F0623031F0611109C0893010F01A
S11309708FE090E090917C00892B80937C008091A3
S11309807A00876080937A0080917A0080628093F5
S11309907A0080917A00806880937A0080917A004E
S11309A0806480937A00089580917A0084FFFCCF5C
S11309B0209179008091780090E0922B0895A1E233
S11309C01A2EAA1BBB1BFD010DC0AA1FBB1FEE1FC5
S11309D0FF1FA217B307E407F50720F0A21BB30B10
S11309E0E40BF50B661F771F881F991F1A9469F78C
S11309F060957095809590959B01AC01BD01CF01E8
S1130A0008950E940C05A59F900DB49F900DA49F7E
S1130A10800D911D11240895A29FB001B39FC001C0
S1130A20A39F700D811D1124911DB29F700D811D16
S10D0A301124911D0895F894FFCFDE
S1130A3A2A204D435520534F4C44455220504C4193
S1130A4A5445202A004C4545204A494E003230324A
S10F0A5A340050726573656E74203A001D
S9030000FC
